{
  "_format": "hh-sol-artifact-1",
  "contractName": "KYC",
  "sourceName": "contracts/KYC.sol",
  "abi": [
    {
      "inputs": [],
      "stateMutability": "nonpayable",
      "type": "constructor"
    },
    {
      "inputs": [
        {
          "internalType": "string",
          "name": "bankName",
          "type": "string"
        },
        {
          "internalType": "address",
          "name": "bankAddress",
          "type": "address"
        },
        {
          "internalType": "string",
          "name": "regNumber",
          "type": "string"
        }
      ],
      "name": "addBank",
      "outputs": [],
      "stateMutability": "nonpayable",
      "type": "function"
    },
    {
      "inputs": [
        {
          "internalType": "string",
          "name": "_userName",
          "type": "string"
        },
        {
          "internalType": "string",
          "name": "_customerData",
          "type": "string"
        }
      ],
      "name": "addCustomer",
      "outputs": [],
      "stateMutability": "nonpayable",
      "type": "function"
    },
    {
      "inputs": [
        {
          "internalType": "string",
          "name": "_userName",
          "type": "string"
        },
        {
          "internalType": "string",
          "name": "_customerData",
          "type": "string"
        }
      ],
      "name": "addKYCrequest",
      "outputs": [],
      "stateMutability": "nonpayable",
      "type": "function"
    },
    {
      "inputs": [
        {
          "internalType": "address",
          "name": "bankAddress",
          "type": "address"
        }
      ],
      "name": "blockBankRights",
      "outputs": [],
      "stateMutability": "nonpayable",
      "type": "function"
    },
    {
      "inputs": [
        {
          "internalType": "string",
          "name": "_customerName",
          "type": "string"
        }
      ],
      "name": "downVoteCustomer",
      "outputs": [],
      "stateMutability": "nonpayable",
      "type": "function"
    },
    {
      "inputs": [
        {
          "internalType": "address",
          "name": "bank",
          "type": "address"
        }
      ],
      "name": "getBankComplaints",
      "outputs": [
        {
          "internalType": "uint256",
          "name": "",
          "type": "uint256"
        }
      ],
      "stateMutability": "view",
      "type": "function"
    },
    {
      "inputs": [
        {
          "internalType": "address",
          "name": "bankAddress",
          "type": "address"
        },
        {
          "internalType": "bool",
          "name": "_isAllowedToVote",
          "type": "bool"
        }
      ],
      "name": "modifyBankRightsToVote",
      "outputs": [],
      "stateMutability": "nonpayable",
      "type": "function"
    },
    {
      "inputs": [
        {
          "internalType": "string",
          "name": "_userName",
          "type": "string"
        },
        {
          "internalType": "string",
          "name": "_newcustomerData",
          "type": "string"
        }
      ],
      "name": "modifyCustomer",
      "outputs": [],
      "stateMutability": "nonpayable",
      "type": "function"
    },
    {
      "inputs": [
        {
          "internalType": "address",
          "name": "bankAddress",
          "type": "address"
        }
      ],
      "name": "removeBank",
      "outputs": [],
      "stateMutability": "nonpayable",
      "type": "function"
    },
    {
      "inputs": [
        {
          "internalType": "string",
          "name": "_customerName",
          "type": "string"
        }
      ],
      "name": "removeKYCrequest",
      "outputs": [],
      "stateMutability": "nonpayable",
      "type": "function"
    },
    {
      "inputs": [
        {
          "internalType": "address",
          "name": "bankAddress",
          "type": "address"
        }
      ],
      "name": "reportBank",
      "outputs": [],
      "stateMutability": "nonpayable",
      "type": "function"
    },
    {
      "inputs": [
        {
          "internalType": "string",
          "name": "_customerName",
          "type": "string"
        }
      ],
      "name": "upVoteCustomer",
      "outputs": [],
      "stateMutability": "nonpayable",
      "type": "function"
    },
    {
      "inputs": [
        {
          "internalType": "address",
          "name": "bank",
          "type": "address"
        }
      ],
      "name": "viewBankDetails",
      "outputs": [
        {
          "internalType": "string",
          "name": "",
          "type": "string"
        },
        {
          "internalType": "string",
          "name": "",
          "type": "string"
        },
        {
          "internalType": "uint256",
          "name": "",
          "type": "uint256"
        },
        {
          "internalType": "uint256",
          "name": "",
          "type": "uint256"
        },
        {
          "internalType": "bool",
          "name": "",
          "type": "bool"
        },
        {
          "internalType": "bool",
          "name": "",
          "type": "bool"
        },
        {
          "internalType": "bool",
          "name": "",
          "type": "bool"
        }
      ],
      "stateMutability": "view",
      "type": "function"
    },
    {
      "inputs": [
        {
          "internalType": "string",
          "name": "_userName",
          "type": "string"
        }
      ],
      "name": "viewCustomer",
      "outputs": [
        {
          "internalType": "string",
          "name": "",
          "type": "string"
        },
        {
          "internalType": "string",
          "name": "",
          "type": "string"
        },
        {
          "internalType": "address",
          "name": "",
          "type": "address"
        }
      ],
      "stateMutability": "view",
      "type": "function"
    }
  ],
  "bytecode": "0x608060405234801561001057600080fd5b50336000806101000a81548173ffffffffffffffffffffffffffffffffffffffff021916908373ffffffffffffffffffffffffffffffffffffffff160217905550613167806100606000396000f3fe608060405234801561001057600080fd5b50600436106100ea5760003560e01c806382e0438a1161008c578063a5a4980011610066578063a5a498001461024b578063c69af34714610267578063ccfa8e7114610283578063f72860ca1461029f576100ea565b806382e0438a146101dd57806388cc8d8d146101f95780639649650c1461022f576100ea565b80635ec2a7f2116100c85780635ec2a7f2146101595780636e24d77114610189578063785deff7146101a55780637c23e886146101c1576100ea565b8063107925bb146100ef5780633190abc014610121578063569e64bc1461013d575b600080fd5b6101096004803603810190610104919061247e565b6102bb565b60405161011893929190612590565b60405180910390f35b61013b600480360381019061013691906125d5565b610518565b005b6101576004803603810190610152919061247e565b610779565b005b610173600480360381019061016e9190612679565b6108f2565b60405161018091906126bf565b60405180910390f35b6101a3600480360381019061019e919061247e565b610a0e565b005b6101bf60048036038101906101ba9190612712565b610b28565b005b6101db60048036038101906101d69190612679565b610ce5565b005b6101f760048036038101906101f2919061247e565b610e6f565b005b610213600480360381019061020e9190612679565b611222565b6040516102269796959493929190612761565b60405180910390f35b61024960048036038101906102449190612679565b611568565b005b61026560048036038101906102609190612679565b61179f565b005b610281600480360381019061027c91906125d5565b61192a565b005b61029d600480360381019061029891906127de565b611b98565b005b6102b960048036038101906102b491906125d5565b612048565b005b60608060008073ffffffffffffffffffffffffffffffffffffffff166001856040516102e791906128a5565b908152602001604051809103902060020160009054906101000a900473ffffffffffffffffffffffffffffffffffffffff1673ffffffffffffffffffffffffffffffffffffffff160361036f576040517f08c379a00000000000000000000000000000000000000000000000000000000081526004016103669061292e565b60405180910390fd5b60018460405161037f91906128a5565b90815260200160405180910390206000016001856040516103a091906128a5565b90815260200160405180910390206001016001866040516103c191906128a5565b908152602001604051809103902060020160009054906101000a900473ffffffffffffffffffffffffffffffffffffffff168280546103ff9061297d565b80601f016020809104026020016040519081016040528092919081815260200182805461042b9061297d565b80156104785780601f1061044d57610100808354040283529160200191610478565b820191906000526020600020905b81548152906001019060200180831161045b57829003601f168201915b5050505050925081805461048b9061297d565b80601f01602080910402602001604051908101604052809291908181526020018280546104b79061297d565b80156105045780601f106104d957610100808354040283529160200191610504565b820191906000526020600020905b8154815290600101906020018083116104e757829003601f168201915b505050505091509250925092509193909250565b600260003373ffffffffffffffffffffffffffffffffffffffff1673ffffffffffffffffffffffffffffffffffffffff16815260200190815260200160002060050160029054906101000a900460ff166105a7576040517f08c379a000000000000000000000000000000000000000000000000000000000815260040161059e90612a20565b60405180910390fd5b600073ffffffffffffffffffffffffffffffffffffffff166001836040516105cf91906128a5565b908152602001604051809103902060020160009054906101000a900473ffffffffffffffffffffffffffffffffffffffff1673ffffffffffffffffffffffffffffffffffffffff1614610657576040517f08c379a000000000000000000000000000000000000000000000000000000000815260040161064e90612ad8565b60405180910390fd5b6040518060c001604052808381526020018281526020013373ffffffffffffffffffffffffffffffffffffffff1681526020016000151581526020016000815260200160008152506001836040516106af91906128a5565b908152602001604051809103902060008201518160000190805190602001906106d9929190612241565b5060208201518160010190805190602001906106f6929190612241565b5060408201518160020160006101000a81548173ffffffffffffffffffffffffffffffffffffffff021916908373ffffffffffffffffffffffffffffffffffffffff16021790555060608201518160020160146101000a81548160ff0219169083151502179055506080820151816003015560a082015181600401559050505050565b600260003373ffffffffffffffffffffffffffffffffffffffff1673ffffffffffffffffffffffffffffffffffffffff16815260200190815260200160002060050160009054906101000a900460ff16610808576040517f08c379a00000000000000000000000000000000000000000000000000000000081526004016107ff90612b44565b60405180910390fd5b600073ffffffffffffffffffffffffffffffffffffffff1660018260405161083091906128a5565b908152602001604051809103902060020160009054906101000a900473ffffffffffffffffffffffffffffffffffffffff1673ffffffffffffffffffffffffffffffffffffffff16036108b8576040517f08c379a00000000000000000000000000000000000000000000000000000000081526004016108af9061292e565b60405180910390fd5b6001816040516108c891906128a5565b908152602001604051809103902060030160008154809291906108ea90612b93565b919050555050565b60008073ffffffffffffffffffffffffffffffffffffffff16600260008473ffffffffffffffffffffffffffffffffffffffff1673ffffffffffffffffffffffffffffffffffffffff16815260200190815260200160002060010160009054906101000a900473ffffffffffffffffffffffffffffffffffffffff1673ffffffffffffffffffffffffffffffffffffffff16036109c4576040517f08c379a00000000000000000000000000000000000000000000000000000000081526004016109bb90612c27565b60405180910390fd5b600260008373ffffffffffffffffffffffffffffffffffffffff1673ffffffffffffffffffffffffffffffffffffffff168152602001908152602001600020600301549050919050565b3373ffffffffffffffffffffffffffffffffffffffff16600382604051610a3591906128a5565b908152602001604051809103902060010160009054906101000a900473ffffffffffffffffffffffffffffffffffffffff1673ffffffffffffffffffffffffffffffffffffffff1614610abd576040517f08c379a0000000000000000000000000000000000000000000000000000000008152600401610ab490612cb9565b60405180910390fd5b600381604051610acd91906128a5565b908152602001604051809103902060008082016000610aec91906122c7565b6001820160006101000a81549073ffffffffffffffffffffffffffffffffffffffff0219169055600282016000610b2391906122c7565b505050565b60008054906101000a900473ffffffffffffffffffffffffffffffffffffffff1673ffffffffffffffffffffffffffffffffffffffff163373ffffffffffffffffffffffffffffffffffffffff1614610bb6576040517f08c379a0000000000000000000000000000000000000000000000000000000008152600401610bad90612d4b565b60405180910390fd5b600073ffffffffffffffffffffffffffffffffffffffff16600260008473ffffffffffffffffffffffffffffffffffffffff1673ffffffffffffffffffffffffffffffffffffffff16815260200190815260200160002060010160009054906101000a900473ffffffffffffffffffffffffffffffffffffffff1673ffffffffffffffffffffffffffffffffffffffff1603610c87576040517f08c379a0000000000000000000000000000000000000000000000000000000008152600401610c7e90612ddd565b60405180910390fd5b80600260008473ffffffffffffffffffffffffffffffffffffffff1673ffffffffffffffffffffffffffffffffffffffff16815260200190815260200160002060050160006101000a81548160ff0219169083151502179055505050565b600073ffffffffffffffffffffffffffffffffffffffff16600260008373ffffffffffffffffffffffffffffffffffffffff1673ffffffffffffffffffffffffffffffffffffffff16815260200190815260200160002060010160009054906101000a900473ffffffffffffffffffffffffffffffffffffffff1673ffffffffffffffffffffffffffffffffffffffff1603610db6576040517f08c379a0000000000000000000000000000000000000000000000000000000008152600401610dad90612e49565b60405180910390fd5b6000600260008373ffffffffffffffffffffffffffffffffffffffff1673ffffffffffffffffffffffffffffffffffffffff16815260200190815260200160002060050160016101000a81548160ff0219169083151502179055506000600260008373ffffffffffffffffffffffffffffffffffffffff1673ffffffffffffffffffffffffffffffffffffffff16815260200190815260200160002060050160026101000a81548160ff02191690831515021790555050565b600260003373ffffffffffffffffffffffffffffffffffffffff1673ffffffffffffffffffffffffffffffffffffffff16815260200190815260200160002060050160009054906101000a900460ff16610efe576040517f08c379a0000000000000000000000000000000000000000000000000000000008152600401610ef590612b44565b60405180910390fd5b600073ffffffffffffffffffffffffffffffffffffffff16600182604051610f2691906128a5565b908152602001604051809103902060020160009054906101000a900473ffffffffffffffffffffffffffffffffffffffff1673ffffffffffffffffffffffffffffffffffffffff1603610fae576040517f08c379a0000000000000000000000000000000000000000000000000000000008152600401610fa59061292e565b60405180910390fd5b600181604051610fbe91906128a5565b90815260200160405180910390206004016000815480929190610fe090612b93565b91905055506000600182604051610ff791906128a5565b90815260200160405180910390206040518060c00160405290816000820180546110209061297d565b80601f016020809104026020016040519081016040528092919081815260200182805461104c9061297d565b80156110995780601f1061106e57610100808354040283529160200191611099565b820191906000526020600020905b81548152906001019060200180831161107c57829003601f168201915b505050505081526020016001820180546110b29061297d565b80601f01602080910402602001604051908101604052809291908181526020018280546110de9061297d565b801561112b5780601f106111005761010080835404028352916020019161112b565b820191906000526020600020905b81548152906001019060200180831161110e57829003601f168201915b505050505081526020016002820160009054906101000a900473ffffffffffffffffffffffffffffffffffffffff1673ffffffffffffffffffffffffffffffffffffffff1673ffffffffffffffffffffffffffffffffffffffff1681526020016002820160149054906101000a900460ff161515151581526020016003820154815260200160048201548152505090508060a0015181608001511180156111e6575060036004805490506111df9190612e98565b8160a00151105b6001836040516111f691906128a5565b908152602001604051809103902060020160146101000a81548160ff0219169083151502179055505050565b60608060008060008060008073ffffffffffffffffffffffffffffffffffffffff16600260008a73ffffffffffffffffffffffffffffffffffffffff1673ffffffffffffffffffffffffffffffffffffffff16815260200190815260200160002060010160009054906101000a900473ffffffffffffffffffffffffffffffffffffffff1673ffffffffffffffffffffffffffffffffffffffff16036112fd576040517f08c379a00000000000000000000000000000000000000000000000000000000081526004016112f490612c27565b60405180910390fd5b6000600260008a73ffffffffffffffffffffffffffffffffffffffff1673ffffffffffffffffffffffffffffffffffffffff1681526020019081526020016000206040518061010001604052908160008201805461135a9061297d565b80601f01602080910402602001604051908101604052809291908181526020018280546113869061297d565b80156113d35780601f106113a8576101008083540402835291602001916113d3565b820191906000526020600020905b8154815290600101906020018083116113b657829003601f168201915b505050505081526020016001820160009054906101000a900473ffffffffffffffffffffffffffffffffffffffff1673ffffffffffffffffffffffffffffffffffffffff1673ffffffffffffffffffffffffffffffffffffffff1681526020016002820180546114429061297d565b80601f016020809104026020016040519081016040528092919081815260200182805461146e9061297d565b80156114bb5780601f10611490576101008083540402835291602001916114bb565b820191906000526020600020905b81548152906001019060200180831161149e57829003601f168201915b5050505050815260200160038201548152602001600482015481526020016005820160009054906101000a900460ff161515151581526020016005820160019054906101000a900460ff161515151581526020016005820160029054906101000a900460ff161515151581525050905080600001518160400151826080015183606001518460e001518560c001518660a00151975097509750975097509750975050919395979092949650565b60008054906101000a900473ffffffffffffffffffffffffffffffffffffffff1673ffffffffffffffffffffffffffffffffffffffff163373ffffffffffffffffffffffffffffffffffffffff16146115f6576040517f08c379a00000000000000000000000000000000000000000000000000000000081526004016115ed90612d4b565b60405180910390fd5b600073ffffffffffffffffffffffffffffffffffffffff16600260008373ffffffffffffffffffffffffffffffffffffffff1673ffffffffffffffffffffffffffffffffffffffff16815260200190815260200160002060010160009054906101000a900473ffffffffffffffffffffffffffffffffffffffff1673ffffffffffffffffffffffffffffffffffffffff16036116c7576040517f08c379a00000000000000000000000000000000000000000000000000000000081526004016116be90612ddd565b60405180910390fd5b600260008273ffffffffffffffffffffffffffffffffffffffff1673ffffffffffffffffffffffffffffffffffffffff1681526020019081526020016000206000808201600061171791906122c7565b6001820160006101000a81549073ffffffffffffffffffffffffffffffffffffffff021916905560028201600061174e91906122c7565b600382016000905560048201600090556005820160006101000a81549060ff02191690556005820160016101000a81549060ff02191690556005820160026101000a81549060ff0219169055505050565b600073ffffffffffffffffffffffffffffffffffffffff16600260008373ffffffffffffffffffffffffffffffffffffffff1673ffffffffffffffffffffffffffffffffffffffff16815260200190815260200160002060010160009054906101000a900473ffffffffffffffffffffffffffffffffffffffff1673ffffffffffffffffffffffffffffffffffffffff1603611870576040517f08c379a000000000000000000000000000000000000000000000000000000000815260040161186790612f15565b60405180910390fd5b600260008273ffffffffffffffffffffffffffffffffffffffff1673ffffffffffffffffffffffffffffffffffffffff16815260200190815260200160002060030160008154809291906118c390612b93565b91905055506119278160036004805490506118de9190612e98565b600260008573ffffffffffffffffffffffffffffffffffffffff1673ffffffffffffffffffffffffffffffffffffffff1681526020019081526020016000206003015410610b28565b50565b600260003373ffffffffffffffffffffffffffffffffffffffff1673ffffffffffffffffffffffffffffffffffffffff16815260200190815260200160002060050160019054906101000a900460ff166119b9576040517f08c379a00000000000000000000000000000000000000000000000000000000081526004016119b090612fa7565b60405180910390fd5b600073ffffffffffffffffffffffffffffffffffffffff166003836040516119e191906128a5565b908152602001604051809103902060010160009054906101000a900473ffffffffffffffffffffffffffffffffffffffff1673ffffffffffffffffffffffffffffffffffffffff1603611a69576040517f08c379a0000000000000000000000000000000000000000000000000000000008152600401611a6090613039565b60405180910390fd5b600260003373ffffffffffffffffffffffffffffffffffffffff1673ffffffffffffffffffffffffffffffffffffffff1681526020019081526020016000206004016000815480929190611abc90612b93565b919050555060405180606001604052808381526020013373ffffffffffffffffffffffffffffffffffffffff16815260200182815250600383604051611b0291906128a5565b90815260200160405180910390206000820151816000019080519060200190611b2c929190612241565b5060208201518160010160006101000a81548173ffffffffffffffffffffffffffffffffffffffff021916908373ffffffffffffffffffffffffffffffffffffffff1602179055506040820151816002019080519060200190611b90929190612241565b509050505050565b60008054906101000a900473ffffffffffffffffffffffffffffffffffffffff1673ffffffffffffffffffffffffffffffffffffffff163373ffffffffffffffffffffffffffffffffffffffff1614611c26576040517f08c379a0000000000000000000000000000000000000000000000000000000008152600401611c1d90612d4b565b60405180910390fd5b611cfa600260008473ffffffffffffffffffffffffffffffffffffffff1673ffffffffffffffffffffffffffffffffffffffff1681526020019081526020016000206000018054611c769061297d565b80601f0160208091040260200160405190810160405280929190818152602001828054611ca29061297d565b8015611cef5780601f10611cc457610100808354040283529160200191611cef565b820191906000526020600020905b815481529060010190602001808311611cd257829003601f168201915b5050505050846121e8565b15611d3a576040517f08c379a0000000000000000000000000000000000000000000000000000000008152600401611d31906130a5565b60405180910390fd5b611e0e600260008473ffffffffffffffffffffffffffffffffffffffff1673ffffffffffffffffffffffffffffffffffffffff1681526020019081526020016000206002018054611d8a9061297d565b80601f0160208091040260200160405190810160405280929190818152602001828054611db69061297d565b8015611e035780601f10611dd857610100808354040283529160200191611e03565b820191906000526020600020905b815481529060010190602001808311611de657829003601f168201915b5050505050826121e8565b15611e4e576040517f08c379a0000000000000000000000000000000000000000000000000000000008152600401611e4590613111565b60405180910390fd5b6040518061010001604052808481526020018373ffffffffffffffffffffffffffffffffffffffff168152602001828152602001600081526020016000815260200160011515815260200160011515815260200160011515815250600260008473ffffffffffffffffffffffffffffffffffffffff1673ffffffffffffffffffffffffffffffffffffffff1681526020019081526020016000206000820151816000019080519060200190611f04929190612241565b5060208201518160010160006101000a81548173ffffffffffffffffffffffffffffffffffffffff021916908373ffffffffffffffffffffffffffffffffffffffff1602179055506040820151816002019080519060200190611f68929190612241565b50606082015181600301556080820151816004015560a08201518160050160006101000a81548160ff02191690831515021790555060c08201518160050160016101000a81548160ff02191690831515021790555060e08201518160050160026101000a81548160ff0219169083151502179055509050506004829080600181540180825580915050600190039060005260206000200160009091909190916101000a81548173ffffffffffffffffffffffffffffffffffffffff021916908373ffffffffffffffffffffffffffffffffffffffff160217905550505050565b600073ffffffffffffffffffffffffffffffffffffffff1660018360405161207091906128a5565b908152602001604051809103902060020160009054906101000a900473ffffffffffffffffffffffffffffffffffffffff1673ffffffffffffffffffffffffffffffffffffffff16036120f8576040517f08c379a00000000000000000000000000000000000000000000000000000000081526004016120ef9061292e565b60405180910390fd5b60038260405161210891906128a5565b90815260200160405180910390206000808201600061212791906122c7565b6001820160006101000a81549073ffffffffffffffffffffffffffffffffffffffff021916905560028201600061215e91906122c7565b50508060018360405161217191906128a5565b90815260200160405180910390206001019080519060200190612195929190612241565b5060006001836040516121a891906128a5565b90815260200160405180910390206003018190555060006001836040516121cf91906128a5565b9081526020016040518091039020600401819055505050565b6000816040516020016121fb91906128a5565b604051602081830303815290604052805190602001208360405160200161222291906128a5565b6040516020818303038152906040528051906020012014905092915050565b82805461224d9061297d565b90600052602060002090601f01602090048101928261226f57600085556122b6565b82601f1061228857805160ff19168380011785556122b6565b828001600101855582156122b6579182015b828111156122b557825182559160200191906001019061229a565b5b5090506122c39190612307565b5090565b5080546122d39061297d565b6000825580601f106122e55750612304565b601f0160209004906000526020600020908101906123039190612307565b5b50565b5b80821115612320576000816000905550600101612308565b5090565b6000604051905090565b600080fd5b600080fd5b600080fd5b600080fd5b6000601f19601f8301169050919050565b7f4e487b7100000000000000000000000000000000000000000000000000000000600052604160045260246000fd5b61238b82612342565b810181811067ffffffffffffffff821117156123aa576123a9612353565b5b80604052505050565b60006123bd612324565b90506123c98282612382565b919050565b600067ffffffffffffffff8211156123e9576123e8612353565b5b6123f282612342565b9050602081019050919050565b82818337600083830152505050565b600061242161241c846123ce565b6123b3565b90508281526020810184848401111561243d5761243c61233d565b5b6124488482856123ff565b509392505050565b600082601f83011261246557612464612338565b5b813561247584826020860161240e565b91505092915050565b6000602082840312156124945761249361232e565b5b600082013567ffffffffffffffff8111156124b2576124b1612333565b5b6124be84828501612450565b91505092915050565b600081519050919050565b600082825260208201905092915050565b60005b838110156125015780820151818401526020810190506124e6565b83811115612510576000848401525b50505050565b6000612521826124c7565b61252b81856124d2565b935061253b8185602086016124e3565b61254481612342565b840191505092915050565b600073ffffffffffffffffffffffffffffffffffffffff82169050919050565b600061257a8261254f565b9050919050565b61258a8161256f565b82525050565b600060608201905081810360008301526125aa8186612516565b905081810360208301526125be8185612516565b90506125cd6040830184612581565b949350505050565b600080604083850312156125ec576125eb61232e565b5b600083013567ffffffffffffffff81111561260a57612609612333565b5b61261685828601612450565b925050602083013567ffffffffffffffff81111561263757612636612333565b5b61264385828601612450565b9150509250929050565b6126568161256f565b811461266157600080fd5b50565b6000813590506126738161264d565b92915050565b60006020828403121561268f5761268e61232e565b5b600061269d84828501612664565b91505092915050565b6000819050919050565b6126b9816126a6565b82525050565b60006020820190506126d460008301846126b0565b92915050565b60008115159050919050565b6126ef816126da565b81146126fa57600080fd5b50565b60008135905061270c816126e6565b92915050565b600080604083850312156127295761272861232e565b5b600061273785828601612664565b9250506020612748858286016126fd565b9150509250929050565b61275b816126da565b82525050565b600060e082019050818103600083015261277b818a612516565b9050818103602083015261278f8189612516565b905061279e60408301886126b0565b6127ab60608301876126b0565b6127b86080830186612752565b6127c560a0830185612752565b6127d260c0830184612752565b98975050505050505050565b6000806000606084860312156127f7576127f661232e565b5b600084013567ffffffffffffffff81111561281557612814612333565b5b61282186828701612450565b935050602061283286828701612664565b925050604084013567ffffffffffffffff81111561285357612852612333565b5b61285f86828701612450565b9150509250925092565b600081905092915050565b600061287f826124c7565b6128898185612869565b93506128998185602086016124e3565b80840191505092915050565b60006128b18284612874565b915081905092915050565b7f437573746f6d6572206973206e6f742070726573656e7420696e20746865206460008201527f6174616261736500000000000000000000000000000000000000000000000000602082015250565b60006129186027836124d2565b9150612923826128bc565b604082019050919050565b600060208201905081810360008301526129478161290b565b9050919050565b7f4e487b7100000000000000000000000000000000000000000000000000000000600052602260045260246000fd5b6000600282049050600182168061299557607f821691505b6020821081036129a8576129a761294e565b5b50919050565b7f746869732062616e6b206973206e6f7420616c6c6f77656420746f206164642060008201527f637573746f6d6572000000000000000000000000000000000000000000000000602082015250565b6000612a0a6028836124d2565b9150612a15826129ae565b604082019050919050565b60006020820190508181036000830152612a39816129fd565b9050919050565b7f437573746f6d657220697320616c72656164792070726573656e742c20706c6560008201527f6173652063616c6c206d6f64696679437573746f6d657220746f20656469742060208201527f74686520637573746f6d65722064617461000000000000000000000000000000604082015250565b6000612ac26051836124d2565b9150612acd82612a40565b606082019050919050565b60006020820190508181036000830152612af181612ab5565b9050919050565b7f546869732062616e6b206973206e6f7420616c6c6f77656420746f20766f7465600082015250565b6000612b2e6020836124d2565b9150612b3982612af8565b602082019050919050565b60006020820190508181036000830152612b5d81612b21565b9050919050565b7f4e487b7100000000000000000000000000000000000000000000000000000000600052601160045260246000fd5b6000612b9e826126a6565b91507fffffffffffffffffffffffffffffffffffffffffffffffffffffffffffffffff8203612bd057612bcf612b64565b5b600182019050919050565b7f2042616e6b206e6f7420666f756e6420696e2074686520646174616261736500600082015250565b6000612c11601f836124d2565b9150612c1c82612bdb565b602082019050919050565b60006020820190508181036000830152612c4081612c04565b9050919050565b7f2062616e6b206973206e6f7420616c6c6f77656420746f2072656d6f7665207460008201527f6865207265717565737420666f72207468697320637573746f6d657220000000602082015250565b6000612ca3603d836124d2565b9150612cae82612c47565b604082019050919050565b60006020820190508181036000830152612cd281612c96565b9050919050565b7f42616e6b2063616e206f6e6c792062652061646465642062792074686520416460008201527f6d696e0000000000000000000000000000000000000000000000000000000000602082015250565b6000612d356023836124d2565b9150612d4082612cd9565b604082019050919050565b60006020820190508181036000830152612d6481612d28565b9050919050565b7f42616e6b20646f6573206e6f7420657869737420696e2074686520646174616260008201527f6173650000000000000000000000000000000000000000000000000000000000602082015250565b6000612dc76023836124d2565b9150612dd282612d6b565b604082019050919050565b60006020820190508181036000830152612df681612dba565b9050919050565b7f62616e6b20646f6573206e6f7420657869737400000000000000000000000000600082015250565b6000612e336013836124d2565b9150612e3e82612dfd565b602082019050919050565b60006020820190508181036000830152612e6281612e26565b9050919050565b7f4e487b7100000000000000000000000000000000000000000000000000000000600052601260045260246000fd5b6000612ea3826126a6565b9150612eae836126a6565b925082612ebe57612ebd612e69565b5b828204905092915050565b7f42616e6b206e6f7420666f756e6420696e207468652064617461626173650000600082015250565b6000612eff601e836124d2565b9150612f0a82612ec9565b602082019050919050565b60006020820190508181036000830152612f2e81612ef2565b9050919050565b7f546869732062616e6b206973206e6f7420616c6c6f77656420746f2070726f6360008201527f65737320616e79204b5943206b79635265717565737473000000000000000000602082015250565b6000612f916037836124d2565b9150612f9c82612f35565b604082019050919050565b60006020820190508181036000830152612fc081612f84565b9050919050565b7f7468697320637573746f6d657220697320616c726561647920696e2070726f6360008201527f6573730000000000000000000000000000000000000000000000000000000000602082015250565b60006130236023836124d2565b915061302e82612fc7565b604082019050919050565b6000602082019050818103600083015261305281613016565b9050919050565b7f42616e6b6e616d6520616c72656164792070726573656e740000000000000000600082015250565b600061308f6018836124d2565b915061309a82613059565b602082019050919050565b600060208201905081810360008301526130be81613082565b9050919050565b7f5265676973746572206e756d62657220616c7265616479206578697374730000600082015250565b60006130fb601e836124d2565b9150613106826130c5565b602082019050919050565b6000602082019050818103600083015261312a816130ee565b905091905056fea2646970667358221220264e64768ed4700d30f7f69a78ce9e89836324a4b308b8bd3b863d491a91f9ab64736f6c634300080e0033",
  "linkReferences": {},
  "deployedLinkReferences": {}
}